:020000040800F2
:1000000048070020CD01000841050008B70300089B
:100010003D0500087D020008C3070008000000003D
:10002000000000000000000000000000650500085E
:10003000810200080000000043050008790600085E
:10004000E7010008E7010008E7010008E7010008F0
:10005000E7010008E7010008E7010008E7010008E0
:10006000E7010008E7010008E7010008E7010008D0
:10007000E7010008E7010008E7010008E7010008C0
:10008000E7010008E7010008E7010008E7010008B0
:10009000E7010008E7010008E7010008E7010008A0
:1000A000E7010008E7010008E7010008E701000890
:1000B000E7010008E7010008E7010008E701000880
:1000C000E7010008E7010008E7010008E701000870
:1000D000E7010008DD060008E7010008E701000865
:1000E000E7010008E7010008E7010008E701000850
:1000F000E7010008E7010008E7010008E701000840
:10010000E7010008E7010008E7010008E70100082F
:10011000E7010008E7010008E7010008E70100081F
:10012000E7010008E7010008E7010008E70100080F
:1001300000F002F800F03AF80AA090E8000C8244BF
:100140008344AAF10107DA4501D100F02FF8AFF29C
:10015000090EBAE80F0013F0010F18BFFB1A43F0A5
:10016000010318473C0D00005C0D0000103A24BF4D
:1001700078C878C1FAD8520724BF30C830C144BF0C
:1001800004680C607047000000230024002500264E
:10019000103A28BF78C1FBD8520728BF30C148BFEA
:1001A0000B6070471FB51FBD10B510BD00F033F8D0
:1001B0001146FFF7F7FF00F078FB00F051F803B4A9
:1001C000FFF7F2FF03BC00F0FEFA00000948804789
:1001D00009480047FEE7FEE7FEE7FEE7FEE7FEE729
:1001E000FEE7FEE7FEE7FEE704480549054A064B41
:1001F000704700007D06000831010008480100201A
:10020000480700204803002048030020704770473B
:10021000704770477047754600F02CF8AE460500F1
:100220006946534620F00700854618B020B5FFF711
:10023000DBFFBDE820404FF000064FF000074FF015
:1002400000084FF0000B21F00701AC46ACE8C009F4
:10025000ACE8C009ACE8C009ACE8C0098D467047FD
:1002600010B50446AFF300802046BDE81040FFF70C
:10027000A6BF000000487047E800002000BFFEE76E
:10028000704710B50522002100BF06E000BF131E15
:10029000A2F10102FBD10522491C8142F6D310BD17
:1002A0002DE9F0410246002500260020002300240D
:1002B000002791F803C00CF00F0591F803C00CF073
:1002C000100CBCF1000F03D091F802C04CEA0505F8
:1002D00091F800C0BCF1000F31D0146800202BE071
:1002E0004FF0010C0CFA00F3B1F800C00CEA030661
:1002F0009E4220D183004FF00F0C0CFA03F7BC4351
:1003000005FA03FC4CEA040491F803C0BCF1280F81
:1003100006D14FF0010C0CFA00FCC2F814C00AE040
:1003200091F803C0BCF1480F05D14FF0010C0CFA55
:1003300000FCC2F810C0401C0828D1D31460B1F8EA
:1003400000C0BCF1FF0F34DD546800202EE000F146
:10035000080C4FF0010808FA0CF3B1F800C00CEAE1
:1003600003069E4221D183004FF00F0C0CFA03F7D5
:10037000BC4305FA03FC4CEA040491F803C0BCF149
:10038000280F05D100F1080C08FA0CF8C2F8148007
:1003900091F803C0BCF1480F07D100F1080C4FF0F1
:1003A000010808FA0CF8C2F81080401C0828CED3C7
:1003B0005460BDE8F08100BFFEE7000008B50121F0
:1003C000042000F0BFF82820ADF8000001208DF8CF
:1003D000020014208DF8030069460248FFF760FF11
:1003E00008BD00000008014030B50446082011494E
:1003F000086000251AE004F0800020B120200D499B
:10040000091F086002E020200A4908600820094905
:10041000091F08600120FFF734FF08200549086024
:100420000120FFF72EFF6006040E6D1C082DE2D39D
:1004300030BD00001408014000B5202016490860B6
:10044000082008600120FFF71CFF134808380068E7
:1004500008B9012000E0002000F0200000B100BD3C
:1004600020200D49091D08600120FFF70AFF0A48F6
:100470000838006800F0200000B1F0E720200649AD
:10048000091D08600120FFF7FCFE08200249091D34
:10049000086000BFE3E700001008014000B520201D
:1004A00008490860082008600120FFF7EAFE0820DC
:1004B0000449091F0860202008600120FFF7E1FEC1
:1004C00000BD00001408014010B520201849086044
:1004D0000120FFF7D6FE0820154908600120FFF72C
:1004E000D0FE05E0641C41F28830844200D106E071
:1004F0000F480838006800F020000028F2D100BF43
:100500000B480838006800F0200040B10820084976
:10051000091D08600120FFF7B4FE002010BD08206F
:100520000349091D08600120FFF7ABFE0120F5E734
:100530001008014010B5FFF741FF10BD00BFFEE7F6
:100540007047704729B1064A92690243044B9A6189
:1005500004E0034A92698243014B9A6170470000AC
:1005600000100240704710B500F002F810BD000006
:100570000CB50020019000903348006840F48030B2
:100580003149086000BF3048006800F40030009036
:100590000198401C0190009818B90198B0F5A06F1F
:1005A000F1D12948006800F4003010B1012000901A
:1005B00001E0002000900098012843D12348006802
:1005C00040F01000214908600846006820F0030050
:1005D00008600846006840F0020008601A48406859
:1005E000194948600846406848600846406840F439
:1005F000806048600846406820F47C1048600846E7
:10060000406840F4E81048600846006840F0807098
:10061000086000BF0C48006800F000700028F9D0A6
:100620000948406820F003000749486008464068D0
:1006300040F00200486000BF0348406800F00C0032
:100640000828F9D10CBD0000001002400020024033
:10065000042808D14FF0E021096941F004014FF06E
:10066000E022116107E04FF0E021096921F0040167
:100670004FF0E022116170477047000010B5134839
:10068000006840F0010011490860084640681049C0
:1006900008400E494860084600680E4908400B496A
:1006A00008600846006820F480200860084640681A
:1006B00020F4FE0048604FF41F008860FFF753FFEE
:1006C0004FF000600449086010BD000000100240B7
:1006D0000000FFF8FFFFF6FE08ED00E010B540F265
:1006E00025511D4800F03EF810B31B4800F064F897
:1006F000C4B21A48008800F40040C8B917480088FE
:1007000000F4804060B10A2C03D000201349088017
:1007100020E01248008840F400401049088019E0A9
:100720000D2C06D10D48008840F480400B4908800C
:1007300010E00A480088C0F30D0009490C5407482E
:100740000088401C0549088008460088C72801DD4C
:100750000020088010BD0000003801401C0000206F
:100760002000002070B50246002400230025002050
:1007700040F66A16B14200D100BFC1F3421501F044
:100780001F03012606FA03F3012D02D19689334097
:1007900006E0022D02D1168A334001E0968A3340EA
:1007A0000C12012606FA04F41688344013B10CB179
:1007B000012000E0002070BD01468888C0F30800D9
:1007C000704700BFFEE7014600BF704710B56FF0ED
:1007D0000400FFF73DFF0A4800680A49B0FBF1F04A
:1007E000094908700846007800EB4001C1EBC010D1
:1007F0004FF6FF7101EAC0000449088010BD0000F7
:100800000000002000127A001400002016000020D2
:100810000146114A12884A434FF0E0235A610022F0
:100820009A611A46126942F001021A6100BF4FF044
:10083000E022106900F001021AB100F48032002AAF
:10084000F5D04FF0E022126922F001024FF0E023D0
:100850001A6100229A6170471600002030B50546E3
:100860000C46FFF7E9FDC020FFF7BEFDFFF72CFEA9
:1008700018B9FFF713FE002030BD2846FFF7B4FD7E
:10088000FFF722FE18B9FFF709FE0020F4E7204623
:10089000FFF7AAFDFFF718FE18B9FFF7FFFD0020CC
:1008A000EAE7FFF7FBFD0020E6E742F2107432258D
:1008B000FFF78CFFFFF73EFE2046002100F0C0F856
:1008C0006000012100F0BCF804EB4400022100F0BC
:1008D000B7F80EE005FB04F0022100F0B1F8322079
:1008E000FFF796FF28466D1C43F69821884200DBEF
:1008F0003225EFE72DE9F0430446884691464FEA5A
:10090000C810A0F5007700250126E0B2310AFFF7F4
:10091000A5FF3146621CD0B2FFF7A0FFC7F301422A
:1009200042EA0901A21CD0B2FFF798FFE11CC8B24D
:10093000C7F30721FFF792FFF9B2221DD0B2FFF7EC
:100940008DFF00222B0C43EA1231621DD0B2FFF75B
:1009500085FFA11DC8B2290AFFF780FF2946E21DC5
:10096000D0B2FFF77BFFBDE8F0832DE9FE4F0446D0
:100970008A4690461D46284600F0B2F9019040464E
:1009800000F0AEF90090019900F0C8F883464FF0EE
:10099000864100F0B9F9029000F082F90646802005
:1009A00000FB0A60A0F50076284600F099F9019056
:1009B000404600F095F90090019900F0AFF84FF033
:1009C0008641029000F0A0F9834600F069F90746DD
:1009D0004FEAC81005FB1707A946E0B2C9F3072183
:1009E000FFF73CFF09F0FF01621CD0B2FFF736FFB2
:1009F000A11CC8B2C6F30141FFF730FFE11CC8B229
:100A0000C6F30721FFF72AFFF1B2221DD0B2FFF78C
:100A100025FF09F47022C7F3034343EA1231621D34
:100A2000D0B2FFF71BFFA11DC8B2C7F30721FFF724
:100A300015FFF9B2E21DD0B2FFF710FFBDE8FE8F3F
:100A40002DE9FE4F06460C46DFF8C0803048B0FB6B
:100A5000F6F505F0010000B16D1E05FB06F7B7FBCA
:100A6000F8F000F0FF0AB7FBF8F008FB10794846F1
:100A700000F036F902902749029800F045F90290FB
:100A8000404600F02DF901460090029800F046F82B
:100A90000290029800F004F90190DFF87CB05B4608
:100AA00051461A20019AFFF760FF6CB900222946CF
:100AB0002A20FFF71FFFA021B120FFF7CFFE4F2113
:100AC0001020FFF7CBFE1EE0012C0DD1002229469D
:100AD0003220FFF70FFFA021B120FFF7BFFE4F210B
:100AE0001120FFF7BBFE0EE0022C0CD1002229469C
:100AF0003A20FFF7FFFEA021B120FFF7AFFE4F2104
:100B00001220FFF7ABFEBDE8FE8F000040787D01AC
:100B100000E9A435F0FF7F49FFFF0F004FF47F0C81
:100B20001CEAD0121EBF1CEAD11392EA0C0F93EA02
:100B30000C0F00F0858090EA010F48BF42F48072EC
:100B400040F4000C41F400002CF07F4120F07F4085
:100B500000B58142A2EB03020FF2081CACEB504E31
:100B6000C0F100009EF800E04FEA4E0E00FB0EFCC4
:100B700038BF49004FEA2C1C02F5FA020CFB0EF3B9
:100B80004FEACE1E4FEA112C4FEAC1210EEB635EF5
:100B900042EB22420EFB0CFC4FEA1C5300FB0311FC
:100BA0004FEA112C4FEA01310EFB0CFC4FEADC4CF2
:100BB00000FB0C11C14228BF09184CEB03335DF850
:100BC00004EB10EB410143EBC250B2F57C0F38BF90
:100BD000704729D512F0F00F1CBF00F1C04000F0A3
:100BE00000407047008182838485868788898B8C4A
:100BF0008D8E8F919293959697999A9C9D9FA0A286
:100C0000A3A5A7A8AAACAEB0B2B3B5B7B9BCBEC0D5
:100C1000C2C5C7C9CCCED1D4D7D9DCDFE2E6E9EC76
:100C2000F0F3F7FAFE0000004FEA400C0CF1807C74
:100C3000BCF17E4F28BF7047B0F1C04000F02BB927
:100C400090EA010F0CEAD11348BF42F4807262456A
:100C500038BF634507D213F47F0F16D080EA010036
:100C600000F00040704710B500F0CFF8097EFC3E60
:100C700000F005B880EA010000F00040704780EA0B
:100C8000010000F0004000F006B912F47F0F04BF2D
:100C90000248704780EA010000F0FDB80000C07F04
:100CA000C10DD1F19E0206DB4FEA002343F0004361
:100CB00023FA02F07047004207D54FEA4001B1F134
:100CC000FE4F02D24FF00000704710B500F09DF8C3
:100CD00049922480002070476FEA2000704700008E
:100CE000B0FA80F310FA03F2C3F19D030AD0D905DC
:100CF00001EB1220530638BF704700F1010008BF16
:100D000020F00100704700004FF47F0C1CEAD01265
:100D10001EBF1CEAD11392EA0C0F93EA0C0F00F0ED
:100D2000478090EA010F48BF42F480724FF0004CB8
:100D30004CEA00204CEA012102EB0302A0FB011364
:100D4000A2F50002002918BF43F001035B0028BF91
:100D50004FEA330342EB22425FEA132C4CEBC250C2
:100D60002EBFBCEB436FB2F57C0F70474FEA036CAC
:100D7000BCF1004F08BF20F00100B2F57C0F38BF76
:100D800070470BD582F0FF0212F5803FC8BF704755
:100D900000F1C040D8BF00F00040704700F5000CE3
:100DA0005FEA4C0C48BF7047B0F1C04000F073B828
:100DB00090EA010F0CEAD11348BF42F480726245F9
:100DC00038BF634504D280EA010000F0004070475C
:100DD00010B500F01AF800BF8900013E00F007B816
:100DE00000F009B85FEA410C5FEA1C6C08D080EAA9
:100DF000010000F050B85FEA400C5FEA1C6CF6D1CD
:100E00004FF00040A0F5800070470EF1020E2EF06A
:100E1000030E5EF8044B244204D44FEA4102B2F1BF
:100E20007F4F11D84FEA4003B3F17F4F0CD80ED15A
:100E30004FEAD07CB2F17F4F0CEB4C0C0CF1020C62
:100E400008BF4CEBD17C04E04FF0080C01E04FEA06
:100E5000D17C0CEB4C0324FA03F404F00704B4F146
:100E6000040C06D20EEB840CBDE810404CF0010CD3
:100E70006047DFE80CF0070802024FF00040A0F5E1
:100E8000800010BD0846420018BFD2F1807288BFB2
:100E900000F0004010BDFF2141EAD050C00570476E
:100EA000C00E000800000020200000006C010008B7
:100EB000E00E00082000002028070000880100083C
:100EC00000A24A0400000000000000000102030428
:100ED00006070809000000000000000000000000F4
:04000005080001CD21
:00000001FF
